{
    "contractName": "MyContract",
    "abi": [
        {
            "inputs": [],
            "name": "greet",
            "outputs": [
                {
                    "internalType": "string",
                    "name": "",
                    "type": "string"
                }
            ],
            "stateMutability": "view",
            "type": "function"
        }
    ],
    "bytecode": "60c0604052600c60809081526b48656c6c6f20576f726c642160a01b60a05260009061002b90826100dd565b5034801561003857600080fd5b5061019c565b634e487b7160e01b600052604160045260246000fd5b600181811c9082168061006857607f821691505b60208210810361008857634e487b7160e01b600052602260045260246000fd5b50919050565b601f8211156100d857600081815260208120601f850160051c810160208610156100b55750805b601f850160051c820191505b818110156100d4578281556001016100c1565b5050505b505050565b81516001600160401b038111156100f6576100f661003e565b61010a816101048454610054565b8461008e565b602080601f83116001811461013f57600084156101275750858301515b600019600386901b1c1916600185901b1785556100d4565b600085815260208120601f198616915b8281101561016e5788860151825594840194600190910190840161014f565b508582101561018c5787850151600019600388901b60f8161c191681555b5050505050600190811b01905550565b61019a806101ab6000396000f3fe608060405234801561001057600080fd5b506004361061002b5760003560e01c8063cfae321714610030575b600080fd5b61003861004e565b60405161004591906100dc565b60405180910390f35b6000805461005b9061012a565b80601f01602080910402602001604051908101604052809291908181526020018280546100879061012a565b80156100d45780601f106100a9576101008083540402835291602001916100d4565b820191906000526020600020905b8154815290600101906020018083116100b757829003601f168201915b505050505081565b600060208083528351808285015260005b81811015610109578581018301518582016040015282016100ed565b506000604082860101526040601f19601f8301168501019250505092915050565b600181811c9082168061013e57607f821691505b60208210810361015e57634e487b7160e01b600052602260045260246000fd5b5091905056fea264697066735822122091a2e3325fe43f47061d4ce2cefb77929c1d95d1059fff84be8f7d224a820c5c64736f6c63430008130033",
    "sourcePath": "/workspaces/codespaces-blank/bLOCKCHAIN/bc.sol",
    "compiler": {
        "name": "solc",
        "version": "0.8.19+commit.7dd6d404"
    },
    "functionHashes": {
        "greet()": "cfae3217"
    },
    "gasEstimates": {
        "creation": {
            "codeDepositCost": "82000",
            "executionCost": "infinite",
            "totalCost": "infinite"
        },
        "external": {
            "greet()": "infinite"
        }
    }
}